{
  "_format": "hh3-artifact-1",
  "contractName": "Marketplace",
  "sourceName": "contracts/Marketplace.sol",
  "abi": [
    {
      "inputs": [
        {
          "internalType": "address",
          "name": "initialOwner",
          "type": "address"
        }
      ],
      "stateMutability": "nonpayable",
      "type": "constructor"
    },
    {
      "inputs": [],
      "name": "AlreadyListed",
      "type": "error"
    },
    {
      "inputs": [],
      "name": "FeeTooHigh",
      "type": "error"
    },
    {
      "inputs": [],
      "name": "InsufficientPayment",
      "type": "error"
    },
    {
      "inputs": [],
      "name": "NotApprovedForMarketplace",
      "type": "error"
    },
    {
      "inputs": [],
      "name": "NotListed",
      "type": "error"
    },
    {
      "inputs": [],
      "name": "NotSeller",
      "type": "error"
    },
    {
      "inputs": [],
      "name": "NotTokenOwner",
      "type": "error"
    },
    {
      "inputs": [
        {
          "internalType": "address",
          "name": "owner",
          "type": "address"
        }
      ],
      "name": "OwnableInvalidOwner",
      "type": "error"
    },
    {
      "inputs": [
        {
          "internalType": "address",
          "name": "account",
          "type": "address"
        }
      ],
      "name": "OwnableUnauthorizedAccount",
      "type": "error"
    },
    {
      "inputs": [],
      "name": "PriceZero",
      "type": "error"
    },
    {
      "inputs": [],
      "name": "ReentrancyGuardReentrantCall",
      "type": "error"
    },
    {
      "inputs": [],
      "name": "TransferFailed",
      "type": "error"
    },
    {
      "anonymous": false,
      "inputs": [
        {
          "indexed": true,
          "internalType": "address",
          "name": "nftContract",
          "type": "address"
        },
        {
          "indexed": true,
          "internalType": "uint256",
          "name": "tokenId",
          "type": "uint256"
        },
        {
          "indexed": true,
          "internalType": "address",
          "name": "seller",
          "type": "address"
        }
      ],
      "name": "Cancelled",
      "type": "event"
    },
    {
      "anonymous": false,
      "inputs": [
        {
          "indexed": true,
          "internalType": "address",
          "name": "nftContract",
          "type": "address"
        },
        {
          "indexed": true,
          "internalType": "uint256",
          "name": "tokenId",
          "type": "uint256"
        },
        {
          "indexed": true,
          "internalType": "address",
          "name": "seller",
          "type": "address"
        },
        {
          "indexed": false,
          "internalType": "uint256",
          "name": "price",
          "type": "uint256"
        }
      ],
      "name": "Listed",
      "type": "event"
    },
    {
      "anonymous": false,
      "inputs": [
        {
          "indexed": true,
          "internalType": "address",
          "name": "previousOwner",
          "type": "address"
        },
        {
          "indexed": true,
          "internalType": "address",
          "name": "newOwner",
          "type": "address"
        }
      ],
      "name": "OwnershipTransferred",
      "type": "event"
    },
    {
      "anonymous": false,
      "inputs": [
        {
          "indexed": false,
          "internalType": "uint96",
          "name": "oldFee",
          "type": "uint96"
        },
        {
          "indexed": false,
          "internalType": "uint96",
          "name": "newFee",
          "type": "uint96"
        }
      ],
      "name": "PlatformFeeUpdated",
      "type": "event"
    },
    {
      "anonymous": false,
      "inputs": [
        {
          "indexed": true,
          "internalType": "address",
          "name": "nftContract",
          "type": "address"
        },
        {
          "indexed": true,
          "internalType": "uint256",
          "name": "tokenId",
          "type": "uint256"
        },
        {
          "indexed": false,
          "internalType": "uint256",
          "name": "oldPrice",
          "type": "uint256"
        },
        {
          "indexed": false,
          "internalType": "uint256",
          "name": "newPrice",
          "type": "uint256"
        }
      ],
      "name": "PriceUpdated",
      "type": "event"
    },
    {
      "anonymous": false,
      "inputs": [
        {
          "indexed": true,
          "internalType": "address",
          "name": "nftContract",
          "type": "address"
        },
        {
          "indexed": true,
          "internalType": "uint256",
          "name": "tokenId",
          "type": "uint256"
        },
        {
          "indexed": false,
          "internalType": "address",
          "name": "seller",
          "type": "address"
        },
        {
          "indexed": true,
          "internalType": "address",
          "name": "buyer",
          "type": "address"
        },
        {
          "indexed": false,
          "internalType": "uint256",
          "name": "price",
          "type": "uint256"
        }
      ],
      "name": "Sold",
      "type": "event"
    },
    {
      "inputs": [
        {
          "internalType": "address",
          "name": "nftContract",
          "type": "address"
        },
        {
          "internalType": "uint256",
          "name": "tokenId",
          "type": "uint256"
        }
      ],
      "name": "buyNFT",
      "outputs": [],
      "stateMutability": "payable",
      "type": "function"
    },
    {
      "inputs": [
        {
          "internalType": "address",
          "name": "nftContract",
          "type": "address"
        },
        {
          "internalType": "uint256",
          "name": "tokenId",
          "type": "uint256"
        }
      ],
      "name": "cancelListing",
      "outputs": [],
      "stateMutability": "nonpayable",
      "type": "function"
    },
    {
      "inputs": [],
      "name": "collectedFees",
      "outputs": [
        {
          "internalType": "uint256",
          "name": "",
          "type": "uint256"
        }
      ],
      "stateMutability": "view",
      "type": "function"
    },
    {
      "inputs": [
        {
          "internalType": "address",
          "name": "nftContract",
          "type": "address"
        },
        {
          "internalType": "uint256",
          "name": "tokenId",
          "type": "uint256"
        }
      ],
      "name": "getListing",
      "outputs": [
        {
          "components": [
            {
              "internalType": "address",
              "name": "seller",
              "type": "address"
            },
            {
              "internalType": "uint256",
              "name": "price",
              "type": "uint256"
            },
            {
              "internalType": "bool",
              "name": "isActive",
              "type": "bool"
            }
          ],
          "internalType": "struct Marketplace.Listing",
          "name": "",
          "type": "tuple"
        }
      ],
      "stateMutability": "view",
      "type": "function"
    },
    {
      "inputs": [
        {
          "internalType": "address",
          "name": "nftContract",
          "type": "address"
        },
        {
          "internalType": "uint256",
          "name": "tokenId",
          "type": "uint256"
        },
        {
          "internalType": "uint256",
          "name": "price",
          "type": "uint256"
        }
      ],
      "name": "listNFT",
      "outputs": [],
      "stateMutability": "nonpayable",
      "type": "function"
    },
    {
      "inputs": [
        {
          "internalType": "address",
          "name": "",
          "type": "address"
        },
        {
          "internalType": "uint256",
          "name": "",
          "type": "uint256"
        }
      ],
      "name": "listings",
      "outputs": [
        {
          "internalType": "address",
          "name": "seller",
          "type": "address"
        },
        {
          "internalType": "uint256",
          "name": "price",
          "type": "uint256"
        },
        {
          "internalType": "bool",
          "name": "isActive",
          "type": "bool"
        }
      ],
      "stateMutability": "view",
      "type": "function"
    },
    {
      "inputs": [
        {
          "internalType": "address",
          "name": "",
          "type": "address"
        },
        {
          "internalType": "address",
          "name": "",
          "type": "address"
        },
        {
          "internalType": "uint256",
          "name": "",
          "type": "uint256"
        },
        {
          "internalType": "bytes",
          "name": "",
          "type": "bytes"
        }
      ],
      "name": "onERC721Received",
      "outputs": [
        {
          "internalType": "bytes4",
          "name": "",
          "type": "bytes4"
        }
      ],
      "stateMutability": "pure",
      "type": "function"
    },
    {
      "inputs": [],
      "name": "owner",
      "outputs": [
        {
          "internalType": "address",
          "name": "",
          "type": "address"
        }
      ],
      "stateMutability": "view",
      "type": "function"
    },
    {
      "inputs": [],
      "name": "platformFee",
      "outputs": [
        {
          "internalType": "uint96",
          "name": "",
          "type": "uint96"
        }
      ],
      "stateMutability": "view",
      "type": "function"
    },
    {
      "inputs": [],
      "name": "renounceOwnership",
      "outputs": [],
      "stateMutability": "nonpayable",
      "type": "function"
    },
    {
      "inputs": [
        {
          "internalType": "address",
          "name": "newOwner",
          "type": "address"
        }
      ],
      "name": "transferOwnership",
      "outputs": [],
      "stateMutability": "nonpayable",
      "type": "function"
    },
    {
      "inputs": [
        {
          "internalType": "uint96",
          "name": "newFee",
          "type": "uint96"
        }
      ],
      "name": "updatePlatformFee",
      "outputs": [],
      "stateMutability": "nonpayable",
      "type": "function"
    },
    {
      "inputs": [
        {
          "internalType": "address",
          "name": "nftContract",
          "type": "address"
        },
        {
          "internalType": "uint256",
          "name": "tokenId",
          "type": "uint256"
        },
        {
          "internalType": "uint256",
          "name": "newPrice",
          "type": "uint256"
        }
      ],
      "name": "updatePrice",
      "outputs": [],
      "stateMutability": "nonpayable",
      "type": "function"
    },
    {
      "inputs": [],
      "name": "withdrawFees",
      "outputs": [],
      "stateMutability": "nonpayable",
      "type": "function"
    }
  ],
  "bytecode": "0x6080604052600280546001600160601b03191660fa179055348015610022575f5ffd5b50604051611240380380611240833981016040819052610041916100d2565b806001600160a01b03811661006f57604051631e4fbdf760e01b81525f600482015260240160405180910390fd5b61007881610083565b5050600180556100ff565b5f80546001600160a01b038381166001600160a01b0319831681178455604051919092169283917f8be0079c531659141344cd1fd0a4f28419497f9722a3daafe3b4186f6b6457e09190a35050565b5f602082840312156100e2575f5ffd5b81516001600160a01b03811681146100f8575f5ffd5b9392505050565b6111348061010c5f395ff3fe6080604052600436106100d8575f3560e01c80638da5cb5b1161007c578063ad05f1b411610057578063ad05f1b4146102c6578063b2ddee06146102e5578063e57d6fb714610304578063f2fde38b14610323575f5ffd5b80638da5cb5b1461026a5780639003adfe14610290578063a82ba76f146102b3575f5ffd5b8063317b8c5b116100b7578063317b8c5b146101d5578063476343ee146101f6578063715018a61461020a57806388700d1c1461021e575f5ffd5b806207df30146100dc578063150b7a021461015a57806326232a2e1461019e575b5f5ffd5b3480156100e7575f5ffd5b5061012e6100f6366004610eeb565b600460209081525f92835260408084209091529082529020805460018201546002909201546001600160a01b03909116919060ff1683565b604080516001600160a01b03909416845260208401929092521515908201526060015b60405180910390f35b348015610165575f5ffd5b50610185610174366004610f15565b630a85bd0160e11b95945050505050565b6040516001600160e01b03199091168152602001610151565b3480156101a9575f5ffd5b506002546101bd906001600160601b031681565b6040516001600160601b039091168152602001610151565b3480156101e0575f5ffd5b506101f46101ef366004610fae565b610342565b005b348015610201575f5ffd5b506101f46103dc565b348015610215575f5ffd5b506101f4610482565b348015610229575f5ffd5b5061023d610238366004610eeb565b610493565b6040805182516001600160a01b031681526020808401519082015291810151151590820152606001610151565b348015610275575f5ffd5b505f546040516001600160a01b039091168152602001610151565b34801561029b575f5ffd5b506102a560035481565b604051908152602001610151565b6101f46102c1366004610eeb565b610503565b3480156102d1575f5ffd5b506101f46102e0366004610fdb565b610969565b3480156102f0575f5ffd5b506101f46102ff366004610eeb565b610c15565b34801561030f575f5ffd5b506101f461031e366004610fdb565b610d08565b34801561032e575f5ffd5b506101f461033d36600461100d565b610df0565b61034a610e32565b6103e86001600160601b03821611156103765760405163cd4e616760e01b815260040160405180910390fd5b600280546001600160601b038381166bffffffffffffffffffffffff1983168117909355604080519190921680825260208201939093527ffeeddf72b7ee4210b769104cb8b071e5706232ac7f671fb292af429ffd58b587910160405180910390a15050565b6103e4610e32565b6103ec610e5e565b600380545f91829055906104075f546001600160a01b031690565b6001600160a01b0316826040515f6040518083038185875af1925050503d805f811461044e576040519150601f19603f3d011682016040523d82523d5f602084013e610453565b606091505b5050905080610475576040516312171d8360e31b815260040160405180910390fd5b505061048060018055565b565b61048a610e32565b6104805f610e88565b604080516060810182525f8082526020820181905291810191909152506001600160a01b038083165f9081526004602090815260408083208584528252918290208251606081018452815490941684526001810154918401919091526002015460ff161515908201525b92915050565b61050b610e5e565b6001600160a01b038083165f9081526004602090815260408083208584528252918290208251606081018452815490941684526001810154918401919091526002015460ff1615159082018190526105765760405163665c1c5760e01b815260040160405180910390fd5b806020015134101561059b5760405163cd1c886760e01b815260040160405180910390fd5b6001600160a01b0383165f908152600460209081526040808320858452825282206002908101805460ff191690555490830151612710916105e7916001600160601b039091169061103c565b6105f19190611053565b6040516301ffc9a760e01b815263152a902d60e11b60048201529091505f9081906001600160a01b038716906301ffc9a790602401602060405180830381865afa158015610641573d5f5f3e3d5ffd5b505050506040513d601f19601f820116820180604052508101906106659190611072565b156106e757602084015160405163152a902d60e11b81526001600160a01b03881691632a55205a916106a4918991600401918252602082015260400190565b6040805180830381865afa1580156106be573d5f5f3e3d5ffd5b505050506040513d601f19601f820116820180604052508101906106e29190611091565b925090505b5f828486602001516106f991906110bd565b61070391906110bd565b90508360035f82825461071691906110d0565b90915550508451604051632142170760e11b81526001600160a01b03918216600482015233602482015260448101889052908816906342842e0e906064015f604051808303815f87803b15801561076b575f5ffd5b505af115801561077d573d5f5f3e3d5ffd5b505050505f855f01516001600160a01b0316826040515f6040518083038185875af1925050503d805f81146107cd576040519150601f19603f3d011682016040523d82523d5f602084013e6107d2565b606091505b50509050806107f4576040516312171d8360e31b815260040160405180910390fd5b5f8411801561080b57506001600160a01b03831615155b15610882575f836001600160a01b0316856040515f6040518083038185875af1925050503d805f8114610859576040519150601f19603f3d011682016040523d82523d5f602084013e61085e565b606091505b5050905080610880576040516312171d8360e31b815260040160405180910390fd5b505b85602001513411156109035760208601515f9033906108a190346110bd565b6040515f81818185875af1925050503d805f81146108da576040519150601f19603f3d011682016040523d82523d5f602084013e6108df565b606091505b5050905080610901576040516312171d8360e31b815260040160405180910390fd5b505b8551602080880151604080516001600160a01b0394851681529283019190915233928a92908c16917fda87ba82c20701b6408a3d08484f0e5ece08f4d8400b15716a197e6e0c23c261910160405180910390a450505050505061096560018055565b5050565b805f0361098957604051637294708f60e11b815260040160405180910390fd5b6040516331a9108f60e11b815260048101839052839033906001600160a01b03831690636352211e90602401602060405180830381865afa1580156109d0573d5f5f3e3d5ffd5b505050506040513d601f19601f820116820180604052508101906109f491906110e3565b6001600160a01b031614610a1b576040516359dc379f60e01b815260040160405180910390fd5b60405163020604bf60e21b81526004810184905230906001600160a01b0383169063081812fc90602401602060405180830381865afa158015610a60573d5f5f3e3d5ffd5b505050506040513d601f19601f82011682018060405250810190610a8491906110e3565b6001600160a01b031614158015610b04575060405163e985e9c560e01b81523360048201523060248201526001600160a01b0382169063e985e9c590604401602060405180830381865afa158015610ade573d5f5f3e3d5ffd5b505050506040513d601f19601f82011682018060405250810190610b029190611072565b155b15610b2257604051634be3a2c560e01b815260040160405180910390fd5b6001600160a01b0384165f90815260046020908152604080832086845290915290206002015460ff1615610b69576040516328f560bb60e21b815260040160405180910390fd5b6040805160608101825233808252602080830186815260018486018181526001600160a01b038b81165f818152600487528981208d82528752899020975188546001600160a01b0319169216919091178755925191860191909155516002909401805460ff191694151594909417909355925185815290928692917f8b06cda60618abf2b2d07227f9dd63ec6349ca3269ce0eb18d49122a48362ad8910160405180910390a450505050565b6001600160a01b038083165f9081526004602090815260408083208584528252918290208251606081018452815490941684526001810154918401919091526002015460ff161515908201819052610c805760405163665c1c5760e01b815260040160405180910390fd5b80516001600160a01b03163314610caa57604051635ec8235160e01b815260040160405180910390fd5b6001600160a01b0383165f818152600460209081526040808320868452909152808220600201805460ff19169055513392859290917f0c8fde439b4e72d175ffeb3c5f3c15c6f70f473413f4c2d68f8971c0d629b60d9190a4505050565b805f03610d2857604051637294708f60e11b815260040160405180910390fd5b6001600160a01b0383165f9081526004602090815260408083208584529091529020600281015460ff16610d6f5760405163665c1c5760e01b815260040160405180910390fd5b80546001600160a01b03163314610d9957604051635ec8235160e01b815260040160405180910390fd5b60018101805490839055604080518281526020810185905285916001600160a01b038816917f40a2e1011bc4b63fe019abc98ce43b9ae4a22f2072b84f3d14941dc1675979c2910160405180910390a35050505050565b610df8610e32565b6001600160a01b038116610e2657604051631e4fbdf760e01b81525f60048201526024015b60405180910390fd5b610e2f81610e88565b50565b5f546001600160a01b031633146104805760405163118cdaa760e01b8152336004820152602401610e1d565b600260015403610e8157604051633ee5aeb560e01b815260040160405180910390fd5b6002600155565b5f80546001600160a01b038381166001600160a01b0319831681178455604051919092169283917f8be0079c531659141344cd1fd0a4f28419497f9722a3daafe3b4186f6b6457e09190a35050565b6001600160a01b0381168114610e2f575f5ffd5b5f5f60408385031215610efc575f5ffd5b8235610f0781610ed7565b946020939093013593505050565b5f5f5f5f5f60808688031215610f29575f5ffd5b8535610f3481610ed7565b94506020860135610f4481610ed7565b935060408601359250606086013567ffffffffffffffff811115610f66575f5ffd5b8601601f81018813610f76575f5ffd5b803567ffffffffffffffff811115610f8c575f5ffd5b886020828401011115610f9d575f5ffd5b959894975092955050506020019190565b5f60208284031215610fbe575f5ffd5b81356001600160601b0381168114610fd4575f5ffd5b9392505050565b5f5f5f60608486031215610fed575f5ffd5b8335610ff881610ed7565b95602085013595506040909401359392505050565b5f6020828403121561101d575f5ffd5b8135610fd481610ed7565b634e487b7160e01b5f52601160045260245ffd5b80820281158282048414176104fd576104fd611028565b5f8261106d57634e487b7160e01b5f52601260045260245ffd5b500490565b5f60208284031215611082575f5ffd5b81518015158114610fd4575f5ffd5b5f5f604083850312156110a2575f5ffd5b82516110ad81610ed7565b6020939093015192949293505050565b818103818111156104fd576104fd611028565b808201808211156104fd576104fd611028565b5f602082840312156110f3575f5ffd5b8151610fd481610ed756fea264697066735822122001a44f06564ba0734890877a65e93d327b51ed917d32d9433bd8b28f0aa1532064736f6c634300081e0033",
  "linkReferences": {},
  "deployedLinkReferences": {},
  "immutableReferences": {},
  "inputSourceName": "project/contracts/Marketplace.sol",
  "buildInfoId": "solc-0_8_30-3785ebc3597d6a76e1ff6eda8e22d9cb31247029"
}