{
  "_format": "hh3-artifact-1",
  "contractName": "GameNFT",
  "sourceName": "contracts/GameNFT.sol",
  "abi": [
    {
      "inputs": [
        {
          "internalType": "address",
          "name": "initialOwner",
          "type": "address"
        }
      ],
      "stateMutability": "nonpayable",
      "type": "constructor"
    },
    {
      "inputs": [
        {
          "internalType": "uint256",
          "name": "numerator",
          "type": "uint256"
        },
        {
          "internalType": "uint256",
          "name": "denominator",
          "type": "uint256"
        }
      ],
      "name": "ERC2981InvalidDefaultRoyalty",
      "type": "error"
    },
    {
      "inputs": [
        {
          "internalType": "address",
          "name": "receiver",
          "type": "address"
        }
      ],
      "name": "ERC2981InvalidDefaultRoyaltyReceiver",
      "type": "error"
    },
    {
      "inputs": [
        {
          "internalType": "uint256",
          "name": "tokenId",
          "type": "uint256"
        },
        {
          "internalType": "uint256",
          "name": "numerator",
          "type": "uint256"
        },
        {
          "internalType": "uint256",
          "name": "denominator",
          "type": "uint256"
        }
      ],
      "name": "ERC2981InvalidTokenRoyalty",
      "type": "error"
    },
    {
      "inputs": [
        {
          "internalType": "uint256",
          "name": "tokenId",
          "type": "uint256"
        },
        {
          "internalType": "address",
          "name": "receiver",
          "type": "address"
        }
      ],
      "name": "ERC2981InvalidTokenRoyaltyReceiver",
      "type": "error"
    },
    {
      "inputs": [
        {
          "internalType": "address",
          "name": "sender",
          "type": "address"
        },
        {
          "internalType": "uint256",
          "name": "tokenId",
          "type": "uint256"
        },
        {
          "internalType": "address",
          "name": "owner",
          "type": "address"
        }
      ],
      "name": "ERC721IncorrectOwner",
      "type": "error"
    },
    {
      "inputs": [
        {
          "internalType": "address",
          "name": "operator",
          "type": "address"
        },
        {
          "internalType": "uint256",
          "name": "tokenId",
          "type": "uint256"
        }
      ],
      "name": "ERC721InsufficientApproval",
      "type": "error"
    },
    {
      "inputs": [
        {
          "internalType": "address",
          "name": "approver",
          "type": "address"
        }
      ],
      "name": "ERC721InvalidApprover",
      "type": "error"
    },
    {
      "inputs": [
        {
          "internalType": "address",
          "name": "operator",
          "type": "address"
        }
      ],
      "name": "ERC721InvalidOperator",
      "type": "error"
    },
    {
      "inputs": [
        {
          "internalType": "address",
          "name": "owner",
          "type": "address"
        }
      ],
      "name": "ERC721InvalidOwner",
      "type": "error"
    },
    {
      "inputs": [
        {
          "internalType": "address",
          "name": "receiver",
          "type": "address"
        }
      ],
      "name": "ERC721InvalidReceiver",
      "type": "error"
    },
    {
      "inputs": [
        {
          "internalType": "address",
          "name": "sender",
          "type": "address"
        }
      ],
      "name": "ERC721InvalidSender",
      "type": "error"
    },
    {
      "inputs": [
        {
          "internalType": "uint256",
          "name": "tokenId",
          "type": "uint256"
        }
      ],
      "name": "ERC721NonexistentToken",
      "type": "error"
    },
    {
      "inputs": [
        {
          "internalType": "address",
          "name": "owner",
          "type": "address"
        }
      ],
      "name": "OwnableInvalidOwner",
      "type": "error"
    },
    {
      "inputs": [
        {
          "internalType": "address",
          "name": "account",
          "type": "address"
        }
      ],
      "name": "OwnableUnauthorizedAccount",
      "type": "error"
    },
    {
      "anonymous": false,
      "inputs": [
        {
          "indexed": true,
          "internalType": "address",
          "name": "owner",
          "type": "address"
        },
        {
          "indexed": true,
          "internalType": "address",
          "name": "approved",
          "type": "address"
        },
        {
          "indexed": true,
          "internalType": "uint256",
          "name": "tokenId",
          "type": "uint256"
        }
      ],
      "name": "Approval",
      "type": "event"
    },
    {
      "anonymous": false,
      "inputs": [
        {
          "indexed": true,
          "internalType": "address",
          "name": "owner",
          "type": "address"
        },
        {
          "indexed": true,
          "internalType": "address",
          "name": "operator",
          "type": "address"
        },
        {
          "indexed": false,
          "internalType": "bool",
          "name": "approved",
          "type": "bool"
        }
      ],
      "name": "ApprovalForAll",
      "type": "event"
    },
    {
      "anonymous": false,
      "inputs": [
        {
          "indexed": false,
          "internalType": "uint256",
          "name": "_fromTokenId",
          "type": "uint256"
        },
        {
          "indexed": false,
          "internalType": "uint256",
          "name": "_toTokenId",
          "type": "uint256"
        }
      ],
      "name": "BatchMetadataUpdate",
      "type": "event"
    },
    {
      "anonymous": false,
      "inputs": [
        {
          "indexed": true,
          "internalType": "address",
          "name": "receiver",
          "type": "address"
        },
        {
          "indexed": false,
          "internalType": "uint96",
          "name": "feeNumerator",
          "type": "uint96"
        }
      ],
      "name": "DefaultRoyaltyUpdated",
      "type": "event"
    },
    {
      "anonymous": false,
      "inputs": [
        {
          "indexed": false,
          "internalType": "uint256",
          "name": "_tokenId",
          "type": "uint256"
        }
      ],
      "name": "MetadataUpdate",
      "type": "event"
    },
    {
      "anonymous": false,
      "inputs": [
        {
          "indexed": true,
          "internalType": "uint256",
          "name": "tokenId",
          "type": "uint256"
        },
        {
          "indexed": true,
          "internalType": "address",
          "name": "owner",
          "type": "address"
        },
        {
          "indexed": false,
          "internalType": "string",
          "name": "tokenURI",
          "type": "string"
        }
      ],
      "name": "Minted",
      "type": "event"
    },
    {
      "anonymous": false,
      "inputs": [
        {
          "indexed": true,
          "internalType": "address",
          "name": "previousOwner",
          "type": "address"
        },
        {
          "indexed": true,
          "internalType": "address",
          "name": "newOwner",
          "type": "address"
        }
      ],
      "name": "OwnershipTransferred",
      "type": "event"
    },
    {
      "anonymous": false,
      "inputs": [
        {
          "indexed": true,
          "internalType": "uint256",
          "name": "tokenId",
          "type": "uint256"
        },
        {
          "indexed": true,
          "internalType": "address",
          "name": "receiver",
          "type": "address"
        },
        {
          "indexed": false,
          "internalType": "uint96",
          "name": "feeNumerator",
          "type": "uint96"
        }
      ],
      "name": "TokenRoyaltyUpdated",
      "type": "event"
    },
    {
      "anonymous": false,
      "inputs": [
        {
          "indexed": true,
          "internalType": "address",
          "name": "from",
          "type": "address"
        },
        {
          "indexed": true,
          "internalType": "address",
          "name": "to",
          "type": "address"
        },
        {
          "indexed": true,
          "internalType": "uint256",
          "name": "tokenId",
          "type": "uint256"
        }
      ],
      "name": "Transfer",
      "type": "event"
    },
    {
      "inputs": [
        {
          "internalType": "address",
          "name": "to",
          "type": "address"
        },
        {
          "internalType": "uint256",
          "name": "tokenId",
          "type": "uint256"
        }
      ],
      "name": "approve",
      "outputs": [],
      "stateMutability": "nonpayable",
      "type": "function"
    },
    {
      "inputs": [
        {
          "internalType": "address",
          "name": "owner",
          "type": "address"
        }
      ],
      "name": "balanceOf",
      "outputs": [
        {
          "internalType": "uint256",
          "name": "",
          "type": "uint256"
        }
      ],
      "stateMutability": "view",
      "type": "function"
    },
    {
      "inputs": [
        {
          "internalType": "address",
          "name": "to",
          "type": "address"
        },
        {
          "internalType": "string[]",
          "name": "uris",
          "type": "string[]"
        }
      ],
      "name": "batchMint",
      "outputs": [
        {
          "internalType": "uint256[]",
          "name": "",
          "type": "uint256[]"
        }
      ],
      "stateMutability": "nonpayable",
      "type": "function"
    },
    {
      "inputs": [
        {
          "internalType": "uint256",
          "name": "tokenId",
          "type": "uint256"
        }
      ],
      "name": "getApproved",
      "outputs": [
        {
          "internalType": "address",
          "name": "",
          "type": "address"
        }
      ],
      "stateMutability": "view",
      "type": "function"
    },
    {
      "inputs": [],
      "name": "getCurrentTokenId",
      "outputs": [
        {
          "internalType": "uint256",
          "name": "",
          "type": "uint256"
        }
      ],
      "stateMutability": "view",
      "type": "function"
    },
    {
      "inputs": [
        {
          "internalType": "address",
          "name": "owner",
          "type": "address"
        },
        {
          "internalType": "address",
          "name": "operator",
          "type": "address"
        }
      ],
      "name": "isApprovedForAll",
      "outputs": [
        {
          "internalType": "bool",
          "name": "",
          "type": "bool"
        }
      ],
      "stateMutability": "view",
      "type": "function"
    },
    {
      "inputs": [
        {
          "internalType": "address",
          "name": "to",
          "type": "address"
        },
        {
          "internalType": "string",
          "name": "uri",
          "type": "string"
        }
      ],
      "name": "mint",
      "outputs": [
        {
          "internalType": "uint256",
          "name": "",
          "type": "uint256"
        }
      ],
      "stateMutability": "nonpayable",
      "type": "function"
    },
    {
      "inputs": [],
      "name": "name",
      "outputs": [
        {
          "internalType": "string",
          "name": "",
          "type": "string"
        }
      ],
      "stateMutability": "view",
      "type": "function"
    },
    {
      "inputs": [],
      "name": "owner",
      "outputs": [
        {
          "internalType": "address",
          "name": "",
          "type": "address"
        }
      ],
      "stateMutability": "view",
      "type": "function"
    },
    {
      "inputs": [
        {
          "internalType": "uint256",
          "name": "tokenId",
          "type": "uint256"
        }
      ],
      "name": "ownerOf",
      "outputs": [
        {
          "internalType": "address",
          "name": "",
          "type": "address"
        }
      ],
      "stateMutability": "view",
      "type": "function"
    },
    {
      "inputs": [],
      "name": "renounceOwnership",
      "outputs": [],
      "stateMutability": "nonpayable",
      "type": "function"
    },
    {
      "inputs": [
        {
          "internalType": "uint256",
          "name": "tokenId",
          "type": "uint256"
        },
        {
          "internalType": "uint256",
          "name": "salePrice",
          "type": "uint256"
        }
      ],
      "name": "royaltyInfo",
      "outputs": [
        {
          "internalType": "address",
          "name": "receiver",
          "type": "address"
        },
        {
          "internalType": "uint256",
          "name": "amount",
          "type": "uint256"
        }
      ],
      "stateMutability": "view",
      "type": "function"
    },
    {
      "inputs": [
        {
          "internalType": "address",
          "name": "from",
          "type": "address"
        },
        {
          "internalType": "address",
          "name": "to",
          "type": "address"
        },
        {
          "internalType": "uint256",
          "name": "tokenId",
          "type": "uint256"
        }
      ],
      "name": "safeTransferFrom",
      "outputs": [],
      "stateMutability": "nonpayable",
      "type": "function"
    },
    {
      "inputs": [
        {
          "internalType": "address",
          "name": "from",
          "type": "address"
        },
        {
          "internalType": "address",
          "name": "to",
          "type": "address"
        },
        {
          "internalType": "uint256",
          "name": "tokenId",
          "type": "uint256"
        },
        {
          "internalType": "bytes",
          "name": "data",
          "type": "bytes"
        }
      ],
      "name": "safeTransferFrom",
      "outputs": [],
      "stateMutability": "nonpayable",
      "type": "function"
    },
    {
      "inputs": [
        {
          "internalType": "address",
          "name": "operator",
          "type": "address"
        },
        {
          "internalType": "bool",
          "name": "approved",
          "type": "bool"
        }
      ],
      "name": "setApprovalForAll",
      "outputs": [],
      "stateMutability": "nonpayable",
      "type": "function"
    },
    {
      "inputs": [
        {
          "internalType": "address",
          "name": "receiver",
          "type": "address"
        },
        {
          "internalType": "uint96",
          "name": "feeNumerator",
          "type": "uint96"
        }
      ],
      "name": "setDefaultRoyalty",
      "outputs": [],
      "stateMutability": "nonpayable",
      "type": "function"
    },
    {
      "inputs": [
        {
          "internalType": "uint256",
          "name": "tokenId",
          "type": "uint256"
        },
        {
          "internalType": "address",
          "name": "receiver",
          "type": "address"
        },
        {
          "internalType": "uint96",
          "name": "feeNumerator",
          "type": "uint96"
        }
      ],
      "name": "setTokenRoyalty",
      "outputs": [],
      "stateMutability": "nonpayable",
      "type": "function"
    },
    {
      "inputs": [
        {
          "internalType": "bytes4",
          "name": "interfaceId",
          "type": "bytes4"
        }
      ],
      "name": "supportsInterface",
      "outputs": [
        {
          "internalType": "bool",
          "name": "",
          "type": "bool"
        }
      ],
      "stateMutability": "view",
      "type": "function"
    },
    {
      "inputs": [],
      "name": "symbol",
      "outputs": [
        {
          "internalType": "string",
          "name": "",
          "type": "string"
        }
      ],
      "stateMutability": "view",
      "type": "function"
    },
    {
      "inputs": [
        {
          "internalType": "uint256",
          "name": "tokenId",
          "type": "uint256"
        }
      ],
      "name": "tokenURI",
      "outputs": [
        {
          "internalType": "string",
          "name": "",
          "type": "string"
        }
      ],
      "stateMutability": "view",
      "type": "function"
    },
    {
      "inputs": [
        {
          "internalType": "address",
          "name": "from",
          "type": "address"
        },
        {
          "internalType": "address",
          "name": "to",
          "type": "address"
        },
        {
          "internalType": "uint256",
          "name": "tokenId",
          "type": "uint256"
        }
      ],
      "name": "transferFrom",
      "outputs": [],
      "stateMutability": "nonpayable",
      "type": "function"
    },
    {
      "inputs": [
        {
          "internalType": "address",
          "name": "newOwner",
          "type": "address"
        }
      ],
      "name": "transferOwnership",
      "outputs": [],
      "stateMutability": "nonpayable",
      "type": "function"
    }
  ],
  "bytecode": "0x608060405234801561000f575f5ffd5b5060405161212138038061212183398101604081905261002e916101ca565b806040518060400160405280600781526020016611d85b5953919560ca1b8152506040518060400160405280600481526020016311d3919560e21b815250815f908161007a919061028f565b506001610087828261028f565b5050506001600160a01b0381166100b857604051631e4fbdf760e01b81525f60048201526024015b60405180910390fd5b6100c1816100d7565b505f600a556100d18160fa610128565b50610349565b600980546001600160a01b038381166001600160a01b0319831681179093556040519116919082907f8be0079c531659141344cd1fd0a4f28419497f9722a3daafe3b4186f6b6457e0905f90a35050565b6127106001600160601b03821681101561016757604051636f483d0960e01b81526001600160601b0383166004820152602481018290526044016100af565b6001600160a01b03831661019057604051635b6cc80560e11b81525f60048201526024016100af565b50604080518082019091526001600160a01b039092168083526001600160601b039091166020909201829052600160a01b90910217600755565b5f602082840312156101da575f5ffd5b81516001600160a01b03811681146101f0575f5ffd5b9392505050565b634e487b7160e01b5f52604160045260245ffd5b600181811c9082168061021f57607f821691505b60208210810361023d57634e487b7160e01b5f52602260045260245ffd5b50919050565b601f82111561028a57805f5260205f20601f840160051c810160208510156102685750805b601f840160051c820191505b81811015610287575f8155600101610274565b50505b505050565b81516001600160401b038111156102a8576102a86101f7565b6102bc816102b6845461020b565b84610243565b6020601f8211600181146102ee575f83156102d75750848201515b5f19600385901b1c1916600184901b178455610287565b5f84815260208120601f198516915b8281101561031d57878501518255602094850194600190920191016102fd565b508482101561033a57868401515f19600387901b60f8161c191681555b50505050600190811b01905550565b611dcb806103565f395ff3fe608060405234801561000f575f5ffd5b506004361061013d575f3560e01c806370a08231116100b4578063b88d4fde11610079578063b88d4fde146102a8578063c87b56dd146102bb578063d0def521146102ce578063e985e9c5146102e1578063f2f18baa146102f4578063f2fde38b14610314575f5ffd5b806370a0823114610261578063715018a6146102745780638da5cb5b1461027c57806395d89b411461028d578063a22cb46514610295575f5ffd5b806323b872dd1161010557806323b872dd146101d15780632a55205a146101e457806342842e0e1461021657806356189236146102295780635944c7531461023b5780636352211e1461024e575f5ffd5b806301ffc9a71461014157806304634d8d1461016957806306fdde031461017e578063081812fc14610193578063095ea7b3146101be575b5f5ffd5b61015461014f3660046116c3565b610327565b60405190151581526020015b60405180910390f35b61017c61017736600461170f565b610337565b005b6101866103f4565b604051610160919061176e565b6101a66101a1366004611780565b610483565b6040516001600160a01b039091168152602001610160565b61017c6101cc366004611797565b6104aa565b61017c6101df3660046117bf565b6104b9565b6101f76101f23660046117f9565b610542565b604080516001600160a01b039093168352602083019190915201610160565b61017c6102243660046117bf565b6105c5565b600a545b604051908152602001610160565b61017c610249366004611819565b6105e4565b6101a661025c366004611780565b6106fb565b61022d61026f366004611852565b610705565b61017c61074a565b6009546001600160a01b03166101a6565b61018661075d565b61017c6102a336600461186b565b61076c565b61017c6102b6366004611942565b610777565b6101866102c9366004611780565b61078f565b61022d6102dc3660046119d7565b61089a565b6101546102ef366004611a22565b6109bc565b610307610302366004611a4a565b6109e9565b6040516101609190611b29565b61017c610322366004611852565b610c84565b5f61033182610cc1565b92915050565b61033f610ce5565b6103e8816001600160601b0316111561039f5760405162461bcd60e51b815260206004820152601d60248201527f526f79616c7479206665652063616e6e6f74206578636565642031302500000060448201526064015b60405180910390fd5b6103a98282610d12565b6040516001600160601b03821681526001600160a01b038316907fe12d7d5bdb8218a22277dca8f854dd4573a1cea3d3e4808dc567df9eb1c14bf49060200160405180910390a25050565b60605f805461040290611b6b565b80601f016020809104026020016040519081016040528092919081815260200182805461042e90611b6b565b80156104795780601f1061045057610100808354040283529160200191610479565b820191905f5260205f20905b81548152906001019060200180831161045c57829003601f168201915b5050505050905090565b5f61048d82610db4565b505f828152600460205260409020546001600160a01b0316610331565b6104b5828233610dec565b5050565b6001600160a01b0382166104e257604051633250574960e11b81525f6004820152602401610396565b5f6104ee838333610df9565b9050836001600160a01b0316816001600160a01b03161461053c576040516364283d7b60e01b81526001600160a01b0380861660048301526024820184905282166044820152606401610396565b50505050565b5f82815260086020526040812080548291906001600160a01b03811690600160a01b90046001600160601b0316816105955750506007546001600160a01b03811690600160a01b90046001600160601b03165b5f6127106105ac6001600160601b03841689611bb7565b6105b69190611bce565b92989297509195505050505050565b6105df83838360405180602001604052805f815250610777565b505050565b6105ec610ce5565b5f838152600260205260409020546001600160a01b03166106465760405162461bcd60e51b8152602060048201526014602482015273151bdad95b88191bd95cc81b9bdd08195e1a5cdd60621b6044820152606401610396565b6103e8816001600160601b031611156106a15760405162461bcd60e51b815260206004820152601d60248201527f526f79616c7479206665652063616e6e6f7420657863656564203130250000006044820152606401610396565b6106ac838383610eeb565b6040516001600160601b03821681526001600160a01b0383169084907fe361b60b9164428d036a601ec08552e653bfe8c44389b8a4ebfd47281eb8741a906020015b60405180910390a3505050565b5f61033182610db4565b5f6001600160a01b03821661072f576040516322718ad960e21b81525f6004820152602401610396565b506001600160a01b03165f9081526003602052604090205490565b610752610ce5565b61075b5f610fab565b565b60606001805461040290611b6b565b6104b5338383610ffc565b6107828484846104b9565b61053c3385858585611092565b606061079a82610db4565b505f82815260066020526040812080546107b390611b6b565b80601f01602080910402602001604051908101604052809291908181526020018280546107df90611b6b565b801561082a5780601f106108015761010080835404028352916020019161082a565b820191905f5260205f20905b81548152906001019060200180831161080d57829003601f168201915b505050505090505f61084660408051602081019091525f815290565b905080515f03610857575092915050565b815115610889578082604051602001610871929190611c04565b60405160208183030381529060405292505050919050565b610892846111ba565b949350505050565b5f6108a3610ce5565b6001600160a01b0383166108f95760405162461bcd60e51b815260206004820152601b60248201527f43616e6e6f74206d696e7420746f207a65726f206164647265737300000000006044820152606401610396565b5f8251116109455760405162461bcd60e51b8152602060048201526019602482015278546f6b656e205552492063616e6e6f7420626520656d70747960381b6044820152606401610396565b6001600a5f8282546109579190611c18565b9091555050600a54610969848261122b565b6109738184611244565b836001600160a01b0316817f3b8a974a6971dbe70c8718ec80406b2790d2aa5477b6a5bed3d94fa19e06d60d856040516109ad919061176e565b60405180910390a39392505050565b6001600160a01b039182165f90815260056020908152604080832093909416825291909152205460ff1690565b60606109f3610ce5565b6001600160a01b038316610a495760405162461bcd60e51b815260206004820152601b60248201527f43616e6e6f74206d696e7420746f207a65726f206164647265737300000000006044820152606401610396565b5f825111610a995760405162461bcd60e51b815260206004820152601c60248201527f4d757374206d696e74206174206c65617374206f6e6520746f6b656e000000006044820152606401610396565b601482511115610afb5760405162461bcd60e51b815260206004820152602760248201527f43616e6e6f74206d696e74206d6f7265207468616e20323020746f6b656e73206044820152666174206f6e636560c81b6064820152608401610396565b5f825167ffffffffffffffff811115610b1657610b166118a4565b604051908082528060200260200182016040528015610b3f578160200160208202803683370190505b5090505f5b8351811015610c7c575f848281518110610b6057610b60611c2b565b60200260200101515111610bb25760405162461bcd60e51b8152602060048201526019602482015278546f6b656e205552492063616e6e6f7420626520656d70747960381b6044820152606401610396565b6001600a5f828254610bc49190611c18565b9091555050600a54610bd6868261122b565b610bf981868481518110610bec57610bec611c2b565b6020026020010151611244565b80838381518110610c0c57610c0c611c2b565b602002602001018181525050856001600160a01b0316817f3b8a974a6971dbe70c8718ec80406b2790d2aa5477b6a5bed3d94fa19e06d60d878581518110610c5657610c56611c2b565b6020026020010151604051610c6b919061176e565b60405180910390a350600101610b44565b509392505050565b610c8c610ce5565b6001600160a01b038116610cb557604051631e4fbdf760e01b81525f6004820152602401610396565b610cbe81610fab565b50565b5f6001600160e01b0319821663152a902d60e11b1480610331575061033182611293565b6009546001600160a01b0316331461075b5760405163118cdaa760e01b8152336004820152602401610396565b6127106001600160601b038216811015610d5157604051636f483d0960e01b81526001600160601b038316600482015260248101829052604401610396565b6001600160a01b038316610d7a57604051635b6cc80560e11b81525f6004820152602401610396565b50604080518082019091526001600160a01b039092168083526001600160601b039091166020909201829052600160a01b90910217600755565b5f818152600260205260408120546001600160a01b03168061033157604051637e27328960e01b815260048101849052602401610396565b6105df83838360016112b7565b5f828152600260205260408120546001600160a01b0390811690831615610e2557610e258184866113bb565b6001600160a01b03811615610e5f57610e405f855f5f6112b7565b6001600160a01b0381165f90815260036020526040902080545f190190555b6001600160a01b03851615610e8d576001600160a01b0385165f908152600360205260409020805460010190555b5f8481526002602052604080822080546001600160a01b0319166001600160a01b0389811691821790925591518793918516917fddf252ad1be2c89b69c2b068fc378daa952ba7f163c4a11628f55a4df523b3ef91a4949350505050565b6127106001600160601b038216811015610f315760405163dfd1fc1b60e01b8152600481018590526001600160601b038316602482015260448101829052606401610396565b6001600160a01b038316610f6157604051634b4f842960e11b8152600481018590525f6024820152604401610396565b506040805180820182526001600160a01b0393841681526001600160601b0392831660208083019182525f968752600890529190942093519051909116600160a01b029116179055565b600980546001600160a01b038381166001600160a01b0319831681179093556040519116919082907f8be0079c531659141344cd1fd0a4f28419497f9722a3daafe3b4186f6b6457e0905f90a35050565b6001600160a01b03821661102e57604051630b61174360e31b81526001600160a01b0383166004820152602401610396565b6001600160a01b038381165f81815260056020908152604080832094871680845294825291829020805460ff191686151590811790915591519182527f17307eab39ab6107e8899845ad3d59bd9653f200f220920489ca2b5937696c3191016106ee565b6001600160a01b0383163b156111b357604051630a85bd0160e11b81526001600160a01b0384169063150b7a02906110d4908890889087908790600401611c3f565b6020604051808303815f875af192505050801561110e575060408051601f3d908101601f1916820190925261110b91810190611c7b565b60015b611175573d80801561113b576040519150601f19603f3d011682016040523d82523d5f602084013e611140565b606091505b5080515f0361116d57604051633250574960e11b81526001600160a01b0385166004820152602401610396565b805160208201fd5b6001600160e01b03198116630a85bd0160e11b146111b157604051633250574960e11b81526001600160a01b0385166004820152602401610396565b505b5050505050565b60606111c582610db4565b505f6111db60408051602081019091525f815290565b90505f8151116111f95760405180602001604052805f815250611224565b806112038461141f565b604051602001611214929190611c04565b6040516020818303038152906040525b9392505050565b6104b5828260405180602001604052805f8152506114af565b5f82815260066020526040902061125b8282611cda565b506040518281527ff8e1a15aba9398e019f0b49df1a4fde98ee17ae345cb5f6b5e2c27f5033e8ce79060200160405180910390a15050565b5f6001600160e01b03198216632483248360e11b14806103315750610331826114c6565b80806112cb57506001600160a01b03821615155b1561138c575f6112da84610db4565b90506001600160a01b038316158015906113065750826001600160a01b0316816001600160a01b031614155b8015611319575061131781846109bc565b155b156113425760405163a9fbf51f60e01b81526001600160a01b0384166004820152602401610396565b811561138a5783856001600160a01b0316826001600160a01b03167f8c5be1e5ebec7d5bd14f71427d1e84f3dd0314c0f7b2291e5b200ac8c7c3b92560405160405180910390a45b505b50505f90815260046020526040902080546001600160a01b0319166001600160a01b0392909216919091179055565b6113c6838383611515565b6105df576001600160a01b0383166113f457604051637e27328960e01b815260048101829052602401610396565b60405163177e802f60e01b81526001600160a01b038316600482015260248101829052604401610396565b60605f61142b83611576565b60010190505f8167ffffffffffffffff81111561144a5761144a6118a4565b6040519080825280601f01601f191660200182016040528015611474576020820181803683370190505b5090508181016020015b5f19016f181899199a1a9b1b9c1cb0b131b232b360811b600a86061a8153600a850494508461147e57509392505050565b6114b9838361164d565b6105df335f858585611092565b5f6001600160e01b031982166380ac58cd60e01b14806114f657506001600160e01b03198216635b5e139f60e01b145b8061033157506301ffc9a760e01b6001600160e01b0319831614610331565b5f6001600160a01b038316158015906108925750826001600160a01b0316846001600160a01b0316148061154e575061154e84846109bc565b806108925750505f908152600460205260409020546001600160a01b03908116911614919050565b5f8072184f03e93ff9f4daa797ed6e38ed64bf6a1f0160401b83106115b45772184f03e93ff9f4daa797ed6e38ed64bf6a1f0160401b830492506040015b6d04ee2d6d415b85acef810000000083106115e0576d04ee2d6d415b85acef8100000000830492506020015b662386f26fc1000083106115fe57662386f26fc10000830492506010015b6305f5e1008310611616576305f5e100830492506008015b612710831061162a57612710830492506004015b6064831061163c576064830492506002015b600a83106103315760010192915050565b6001600160a01b03821661167657604051633250574960e11b81525f6004820152602401610396565b5f61168283835f610df9565b90506001600160a01b038116156105df576040516339e3563760e11b81525f6004820152602401610396565b6001600160e01b031981168114610cbe575f5ffd5b5f602082840312156116d3575f5ffd5b8135611224816116ae565b80356001600160a01b03811681146116f4575f5ffd5b919050565b80356001600160601b03811681146116f4575f5ffd5b5f5f60408385031215611720575f5ffd5b611729836116de565b9150611737602084016116f9565b90509250929050565b5f81518084528060208401602086015e5f602082860101526020601f19601f83011685010191505092915050565b602081525f6112246020830184611740565b5f60208284031215611790575f5ffd5b5035919050565b5f5f604083850312156117a8575f5ffd5b6117b1836116de565b946020939093013593505050565b5f5f5f606084860312156117d1575f5ffd5b6117da846116de565b92506117e8602085016116de565b929592945050506040919091013590565b5f5f6040838503121561180a575f5ffd5b50508035926020909101359150565b5f5f5f6060848603121561182b575f5ffd5b8335925061183b602085016116de565b9150611849604085016116f9565b90509250925092565b5f60208284031215611862575f5ffd5b611224826116de565b5f5f6040838503121561187c575f5ffd5b611885836116de565b915060208301358015158114611899575f5ffd5b809150509250929050565b634e487b7160e01b5f52604160045260245ffd5b604051601f8201601f1916810167ffffffffffffffff811182821017156118e1576118e16118a4565b604052919050565b5f5f67ffffffffffffffff841115611903576119036118a4565b50601f8301601f1916602001611918816118b8565b91505082815283838301111561192c575f5ffd5b828260208301375f602084830101529392505050565b5f5f5f5f60808587031215611955575f5ffd5b61195e856116de565b935061196c602086016116de565b925060408501359150606085013567ffffffffffffffff81111561198e575f5ffd5b8501601f8101871361199e575f5ffd5b6119ad878235602084016118e9565b91505092959194509250565b5f82601f8301126119c8575f5ffd5b611224838335602085016118e9565b5f5f604083850312156119e8575f5ffd5b6119f1836116de565b9150602083013567ffffffffffffffff811115611a0c575f5ffd5b611a18858286016119b9565b9150509250929050565b5f5f60408385031215611a33575f5ffd5b611a3c836116de565b9150611737602084016116de565b5f5f60408385031215611a5b575f5ffd5b611a64836116de565b9150602083013567ffffffffffffffff811115611a7f575f5ffd5b8301601f81018513611a8f575f5ffd5b803567ffffffffffffffff811115611aa957611aa96118a4565b8060051b611ab9602082016118b8565b91825260208184018101929081019088841115611ad4575f5ffd5b6020850192505b83831015611b1a57823567ffffffffffffffff811115611af9575f5ffd5b611b088a6020838901016119b9565b83525060209283019290910190611adb565b80955050505050509250929050565b602080825282518282018190525f918401906040840190835b81811015611b60578351835260209384019390920191600101611b42565b509095945050505050565b600181811c90821680611b7f57607f821691505b602082108103611b9d57634e487b7160e01b5f52602260045260245ffd5b50919050565b634e487b7160e01b5f52601160045260245ffd5b808202811582820484141761033157610331611ba3565b5f82611be857634e487b7160e01b5f52601260045260245ffd5b500490565b5f81518060208401855e5f93019283525090919050565b5f610892611c128386611bed565b84611bed565b8082018082111561033157610331611ba3565b634e487b7160e01b5f52603260045260245ffd5b6001600160a01b03858116825284166020820152604081018390526080606082018190525f90611c7190830184611740565b9695505050505050565b5f60208284031215611c8b575f5ffd5b8151611224816116ae565b601f8211156105df57805f5260205f20601f840160051c81016020851015611cbb5750805b601f840160051c820191505b818110156111b3575f8155600101611cc7565b815167ffffffffffffffff811115611cf457611cf46118a4565b611d0881611d028454611b6b565b84611c96565b6020601f821160018114611d3a575f8315611d235750848201515b5f19600385901b1c1916600184901b1784556111b3565b5f84815260208120601f198516915b82811015611d695787850151825560209485019460019092019101611d49565b5084821015611d8657868401515f19600387901b60f8161c191681555b50505050600190811b0190555056fea2646970667358221220add57d75e363a67aceb304b089d94026c39a254f9646d389d4f03782d7811db764736f6c634300081e0033",
  "linkReferences": {},
  "deployedLinkReferences": {},
  "immutableReferences": {},
  "inputSourceName": "project/contracts/GameNFT.sol",
  "buildInfoId": "solc-0_8_30-24abd701a6a1802372fbec3b45ca6342d8b939f9"
}